{
  "contractName": "OnlineShop",
  "abi": [
    {
      "constant": true,
      "inputs": [
        {
          "name": "",
          "type": "uint256"
        }
      ],
      "name": "articles",
      "outputs": [
        {
          "name": "id",
          "type": "uint256"
        },
        {
          "name": "seller",
          "type": "address"
        },
        {
          "name": "buyer",
          "type": "address"
        },
        {
          "name": "name",
          "type": "string"
        },
        {
          "name": "description",
          "type": "string"
        },
        {
          "name": "price",
          "type": "uint256"
        }
      ],
      "payable": false,
      "stateMutability": "view",
      "type": "function"
    },
    {
      "inputs": [],
      "payable": false,
      "stateMutability": "nonpayable",
      "type": "constructor"
    },
    {
      "anonymous": false,
      "inputs": [
        {
          "indexed": true,
          "name": "_id",
          "type": "uint256"
        },
        {
          "indexed": true,
          "name": "_seller",
          "type": "address"
        },
        {
          "indexed": false,
          "name": "_name",
          "type": "string"
        },
        {
          "indexed": false,
          "name": "_price",
          "type": "uint256"
        }
      ],
      "name": "LogSellArticle",
      "type": "event"
    },
    {
      "anonymous": false,
      "inputs": [
        {
          "indexed": true,
          "name": "_id",
          "type": "uint256"
        },
        {
          "indexed": true,
          "name": "_seller",
          "type": "address"
        },
        {
          "indexed": true,
          "name": "_buyer",
          "type": "address"
        },
        {
          "indexed": false,
          "name": "_name",
          "type": "string"
        },
        {
          "indexed": false,
          "name": "_price",
          "type": "uint256"
        }
      ],
      "name": "LogBuyArticle",
      "type": "event"
    },
    {
      "constant": false,
      "inputs": [],
      "name": "stopContract",
      "outputs": [],
      "payable": false,
      "stateMutability": "nonpayable",
      "type": "function"
    },
    {
      "constant": false,
      "inputs": [],
      "name": "resumeContract",
      "outputs": [],
      "payable": false,
      "stateMutability": "nonpayable",
      "type": "function"
    },
    {
      "constant": false,
      "inputs": [],
      "name": "kill",
      "outputs": [],
      "payable": false,
      "stateMutability": "nonpayable",
      "type": "function"
    },
    {
      "constant": false,
      "inputs": [
        {
          "name": "_name",
          "type": "string"
        },
        {
          "name": "_description",
          "type": "string"
        },
        {
          "name": "_price",
          "type": "uint256"
        }
      ],
      "name": "sellArticle",
      "outputs": [],
      "payable": false,
      "stateMutability": "nonpayable",
      "type": "function"
    },
    {
      "constant": true,
      "inputs": [],
      "name": "getNumberOfArticles",
      "outputs": [
        {
          "name": "",
          "type": "uint256"
        }
      ],
      "payable": false,
      "stateMutability": "view",
      "type": "function"
    },
    {
      "constant": true,
      "inputs": [],
      "name": "getArticlesForSale",
      "outputs": [
        {
          "name": "",
          "type": "uint256[]"
        }
      ],
      "payable": false,
      "stateMutability": "view",
      "type": "function"
    },
    {
      "constant": false,
      "inputs": [
        {
          "name": "_id",
          "type": "uint256"
        }
      ],
      "name": "buyArticle",
      "outputs": [],
      "payable": true,
      "stateMutability": "payable",
      "type": "function"
    }
  ],
  "bytecode": "0x60806040526000600360006101000a81548160ff021916908315150217905550600060045560036005556802b5e3af16b188000060065534801561004257600080fd5b50336000806101000a81548173ffffffffffffffffffffffffffffffffffffffff021916908373ffffffffffffffffffffffffffffffffffffffff160217905550611216806100926000396000f30060806040526004361061008e576000357c0100000000000000000000000000000000000000000000000000000000900463ffffffff16806312253a6c146100935780631cc4baa8146100aa57806341c0e1b5146100ca5780637f6be3da146100e157806389da85d31461014d578063c4bc5da514610178578063d26095151461018f578063edcfafe614610248575b600080fd5b34801561009f57600080fd5b506100a86103ce565b005b6100c860048036038101908080359060200190929190505050610446565b005b3480156100d657600080fd5b506100df61076b565b005b3480156100ed57600080fd5b506100f6610800565b6040518080602001828103825283818151815260200191508051906020019060200280838360005b8381101561013957808201518184015260208101905061011e565b505050509050019250505060405180910390f35b34801561015957600080fd5b5061016261097b565b6040518082815260200191505060405180910390f35b34801561018457600080fd5b5061018d610985565b005b34801561019b57600080fd5b50610246600480360381019080803590602001908201803590602001908080601f0160208091040260200160405190810160405280939291908181526020018383808284378201915050505050509192919290803590602001908201803590602001908080601f0160208091040260200160405190810160405280939291908181526020018383808284378201915050505050509192919290803590602001909291905050506109fd565b005b34801561025457600080fd5b5061027360048036038101908080359060200190929190505050610c67565b604051808781526020018673ffffffffffffffffffffffffffffffffffffffff1673ffffffffffffffffffffffffffffffffffffffff1681526020018573ffffffffffffffffffffffffffffffffffffffff1673ffffffffffffffffffffffffffffffffffffffff1681526020018060200180602001848152602001838103835286818151815260200191508051906020019080838360005b8381101561032757808201518184015260208101905061030c565b50505050905090810190601f1680156103545780820380516001836020036101000a031916815260200191505b50838103825285818151815260200191508051906020019080838360005b8381101561038d578082015181840152602081019050610372565b50505050905090810190601f1680156103ba5780820380516001836020036101000a031916815260200191505b509850505050505050505060405180910390f35b6000809054906101000a900473ffffffffffffffffffffffffffffffffffffffff1673ffffffffffffffffffffffffffffffffffffffff163373ffffffffffffffffffffffffffffffffffffffff1614151561042957600080fd5b6001600360006101000a81548160ff021916908315150217905550565b60006005546004544210151561076657600360009054906101000a900460ff1615151561047257600080fd5b600060025411151561048357600080fd5b60008311801561049557506002548311155b15156104a057600080fd5b60016000848152602001908152602001600020915060008260020160009054906101000a900473ffffffffffffffffffffffffffffffffffffffff1673ffffffffffffffffffffffffffffffffffffffff161415156104fe57600080fd5b8160010160009054906101000a900473ffffffffffffffffffffffffffffffffffffffff1673ffffffffffffffffffffffffffffffffffffffff163373ffffffffffffffffffffffffffffffffffffffff161415151561055d57600080fd5b81600501543414151561056f57600080fd5b338260020160006101000a81548173ffffffffffffffffffffffffffffffffffffffff021916908373ffffffffffffffffffffffffffffffffffffffff1602179055508160010160009054906101000a900473ffffffffffffffffffffffffffffffffffffffff1673ffffffffffffffffffffffffffffffffffffffff166108fc349081150290604051600060405180830381858888f1935050505015801561061c573d6000803e3d6000fd5b508160020160009054906101000a900473ffffffffffffffffffffffffffffffffffffffff1673ffffffffffffffffffffffffffffffffffffffff168260010160009054906101000a900473ffffffffffffffffffffffffffffffffffffffff1673ffffffffffffffffffffffffffffffffffffffff16847f5d28bc06e6f0c45405abfe77bd77236c767f9bd9d044ae2d954a415a2b4823e0856003018660050154604051808060200183815260200182810382528481815460018160011615610100020316600290048152602001915080546001816001161561010002031660029004801561074d5780601f106107225761010080835404028352916020019161074d565b820191906000526020600020905b81548152906001019060200180831161073057829003601f168201915b5050935050505060405180910390a48042016004819055505b505050565b6000809054906101000a900473ffffffffffffffffffffffffffffffffffffffff1673ffffffffffffffffffffffffffffffffffffffff163373ffffffffffffffffffffffffffffffffffffffff161415156107c657600080fd5b6000809054906101000a900473ffffffffffffffffffffffffffffffffffffffff1673ffffffffffffffffffffffffffffffffffffffff16ff5b6060806000806060600060025460405190808252806020026020018201604052801561083b5781602001602082028038833980820191505090505b50945060009350600192505b600254831115156108f05760006001600085815260200190815260200160002060020160009054906101000a900473ffffffffffffffffffffffffffffffffffffffff1673ffffffffffffffffffffffffffffffffffffffff1614156108e357600160008481526020019081526020016000206000015485858151811015156108cc57fe5b906020019060200201818152505083806001019450505b8280600101935050610847565b8360405190808252806020026020018201604052801561091f5781602001602082028038833980820191505090505b509150600090505b8381101561097057848181518110151561093d57fe5b90602001906020020151828281518110151561095557fe5b90602001906020020181815250508080600101915050610927565b819550505050505090565b6000600254905090565b6000809054906101000a900473ffffffffffffffffffffffffffffffffffffffff1673ffffffffffffffffffffffffffffffffffffffff163373ffffffffffffffffffffffffffffffffffffffff161415156109e057600080fd5b6000600360006101000a81548160ff021916908315150217905550565b600360009054906101000a900460ff16151515610a1957600080fd5b600081111515610a2857600080fd5b6006548111151515610a3957600080fd5b60026000815480929190600101919050555060c06040519081016040528060025481526020013373ffffffffffffffffffffffffffffffffffffffff168152602001600073ffffffffffffffffffffffffffffffffffffffff168152602001610aa185610e13565b8152602001838152602001828152506001600060025481526020019081526020016000206000820151816000015560208201518160010160006101000a81548173ffffffffffffffffffffffffffffffffffffffff021916908373ffffffffffffffffffffffffffffffffffffffff16021790555060408201518160020160006101000a81548173ffffffffffffffffffffffffffffffffffffffff021916908373ffffffffffffffffffffffffffffffffffffffff1602179055506060820151816003019080519060200190610b79929190611145565b506080820151816004019080519060200190610b96929190611145565b5060a082015181600501559050503373ffffffffffffffffffffffffffffffffffffffff166002547fe2ebb0c522a8b90a93f45a5dfd3c0e0516b81519fdf199efe51c474642fe8cec85846040518080602001838152602001828103825284818151815260200191508051906020019080838360005b83811015610c27578082015181840152602081019050610c0c565b50505050905090810190601f168015610c545780820380516001836020036101000a031916815260200191505b50935050505060405180910390a3505050565b60016020528060005260406000206000915090508060000154908060010160009054906101000a900473ffffffffffffffffffffffffffffffffffffffff16908060020160009054906101000a900473ffffffffffffffffffffffffffffffffffffffff1690806003018054600181600116156101000203166002900480601f016020809104026020016040519081016040528092919081815260200182805460018160011615610100020316600290048015610d655780601f10610d3a57610100808354040283529160200191610d65565b820191906000526020600020905b815481529060010190602001808311610d4857829003601f168201915b505050505090806004018054600181600116156101000203166002900480601f016020809104026020016040519081016040528092919081815260200182805460018160011615610100020316600290048015610e035780601f10610dd857610100808354040283529160200191610e03565b820191906000526020600020905b815481529060010190602001808311610de657829003601f168201915b5050505050908060050154905086565b6060806060600084925082516040519080825280601f01601f191660200182016040528015610e515781602001602082028038833980820191505090505b509150600090505b825181101561113a5760617f0100000000000000000000000000000000000000000000000000000000000000028382815181101515610e9457fe5b9060200101517f010000000000000000000000000000000000000000000000000000000000000090047f0100000000000000000000000000000000000000000000000000000000000000027effffffffffffffffffffffffffffffffffffffffffffffffffffffffffffff191610158015610fac5750607a7f0100000000000000000000000000000000000000000000000000000000000000028382815181101515610f3c57fe5b9060200101517f010000000000000000000000000000000000000000000000000000000000000090047f0100000000000000000000000000000000000000000000000000000000000000027effffffffffffffffffffffffffffffffffffffffffffffffffffffffffffff191611155b156110955760208382815181101515610fc157fe5b9060200101517f010000000000000000000000000000000000000000000000000000000000000090047f0100000000000000000000000000000000000000000000000000000000000000027f01000000000000000000000000000000000000000000000000000000000000009004037f010000000000000000000000000000000000000000000000000000000000000002828281518110151561106057fe5b9060200101907effffffffffffffffffffffffffffffffffffffffffffffffffffffffffffff1916908160001a90535061112d565b82818151811015156110a357fe5b9060200101517f010000000000000000000000000000000000000000000000000000000000000090047f01000000000000000000000000000000000000000000000000000000000000000282828151811015156110fc57fe5b9060200101907effffffffffffffffffffffffffffffffffffffffffffffffffffffffffffff1916908160001a9053505b8080600101915050610e59565b819350505050919050565b828054600181600116156101000203166002900490600052602060002090601f016020900481019282601f1061118657805160ff19168380011785556111b4565b828001600101855582156111b4579182015b828111156111b3578251825591602001919060010190611198565b5b5090506111c191906111c5565b5090565b6111e791905b808211156111e35760008160009055506001016111cb565b5090565b905600a165627a7a723058200612aaa351de15698b18b922f21cd166e18430b8e3791f3f12c6edfdf9d96d190029",
  "source": "pragma solidity ^0.4.23;\n\nimport \"./Strings.sol\";\n\n// @title  OnlineShop Contract\ncontract OnlineShop {\n\n  // custom types\n  struct Article {\n    uint id;\n    address seller;\n    address buyer;\n    string name;\n    string description;\n    uint256 price;\n  }\n\n  // state variables\n  address owner;\n  mapping (uint => Article) public articles;\n  uint articleCounter;\n\n  // other auxiliar state variables not related to articles\n  bool isStopped = false;\n  uint allowedTime = 0;\n  uint secondsBetweenBuys = 3;\n  uint maxWeiPriceForArticle = 50000000000000000000; // 50 Ether;\n\n  // events\n  event LogSellArticle(\n    uint indexed _id,\n    address indexed _seller,\n    string _name,\n    uint256 _price\n  );\n  event LogBuyArticle(\n    uint indexed _id,\n    address indexed _seller,\n    address indexed _buyer,\n    string _name,\n    uint256 _price\n  );\n\n\n  /** Onliy the owner of the contract will be able to execute functions with\n    * this modifier is applied\n    */\n  modifier onlyOwner() {\n    require(msg.sender == owner);\n    _;\n  }\n\n  /** @dev Mdifier to avoid execution a certain function while an\n    * emergency stop\n    */\n  modifier stoppedInEmergency {\n      require(!isStopped);\n      _;\n  }\n\n  /** @dev If the function gets executed it postpone the begining for the next\n    * execution to 't' seconds from now to limit the frequency on a certain\n    * function execution\n    * @param t number of seconds from now till function will be executable again\n    */\n  modifier setSpeedBumpsEvery(uint t) {\n      if (now >= allowedTime) {\n        _;\n        allowedTime = now + t;\n      }\n  }\n\n  /** Constructor function sets the owner of the contract to msg.sender\n    */\n  constructor() public {\n    owner = msg.sender;\n  }\n\n  /** @dev call to this function will force an emmergency stop.\n    * Only the owner of this contract can call this function\n    */\n  function stopContract() public onlyOwner {\n      isStopped = true;\n  }\n\n  /** @dev call to this function will resume the emmergency stop.\n    * Only the owner of this contract can call this function\n    */\n  function resumeContract() public onlyOwner {\n      isStopped = false;\n  }\n\n  /** @dev deactivate/terminates the contract and return the funds to the owner\n    */\n  function kill() public onlyOwner {\n    selfdestruct(owner);\n  }\n\n  /** @dev puts an article on sale and increases the storage variable 'articleCounter'\n    * @param _name name of the article to be sold\n    * @param _description description of the article to be sold\n    * @param _price price of the article to be sold\n    */\n  function sellArticle(string _name, string _description, uint256 _price) public stoppedInEmergency {\n\n    // Price must be a positive number\n    require(_price > 0);\n\n    // Price must have a maximum amount to avoid Integer Overflow attacks\n    require(_price <= maxWeiPriceForArticle);\n\n    // a new article\n    articleCounter++;\n\n    // store this article\n    articles[articleCounter] = Article(\n      articleCounter,\n      msg.sender,\n      0x0,\n      Strings._toUpper(_name),\n      _description,\n      _price\n    );\n\n    emit LogSellArticle(articleCounter, msg.sender, _name, _price);\n  }\n\n  /** @dev fetch the number of articles in the contract\n    * @return uint then total number of articles\n    */\n  function getNumberOfArticles() public view returns (uint) {\n    return articleCounter;\n  }\n\n  /** @dev fetch and return all article IDs for articles still for sale\n    * @return uint[] array of articles IDs sill for sale\n    */\n  function getArticlesForSale() public view returns (uint[]) {\n    // prepare output array\n    uint[] memory articleIds = new uint[](articleCounter);\n\n    uint numberOfArticlesForSale = 0;\n    // iterate over articles\n    for(uint i = 1; i <= articleCounter;  i++) {\n      // keep the ID if the article is still for sale\n      if(articles[i].buyer == 0x0) {\n        articleIds[numberOfArticlesForSale] = articles[i].id;\n        numberOfArticlesForSale++;\n      }\n    }\n\n    // copy the articleIds array into a smaller forSale array\n    uint[] memory forSale = new uint[](numberOfArticlesForSale);\n    for(uint j = 0; j < numberOfArticlesForSale; j++) {\n      forSale[j] = articleIds[j];\n    }\n    return forSale;\n  }\n\n  /** @dev buy an article\n    * @param _id ID of the article we are trying to buy\n    */\n  function buyArticle(uint _id) setSpeedBumpsEvery(secondsBetweenBuys) payable public stoppedInEmergency {\n    // we check whether there is an article for sale\n    require(articleCounter > 0);\n\n    // we check that the article exists\n    require(_id > 0 && _id <= articleCounter);\n\n    // we retrieve the article\n    Article storage article = articles[_id];\n\n    // we check that the article has not been sold yet\n    require(article.buyer == 0X0);\n\n    // we don't allow the seller to buy his own article\n    require(msg.sender != article.seller);\n\n    // we check that the value sent corresponds to the price of the article\n    require(msg.value == article.price);\n\n    // keep buyer's information\n    article.buyer = msg.sender;\n\n    // the buyer can pay the seller\n    article.seller.transfer(msg.value);\n\n    // trigger the event\n    emit LogBuyArticle(_id, article.seller, article.buyer, article.name, article.price);\n  }\n}\n",
  "sourcePath": "/Users/coni/ChainSkills/Training/onlineShop/contracts/OnlineShop.sol",
  "compiler": {
    "name": "solc",
    "version": "0.4.24+commit.e67f0147.Emscripten.clang"
  },
  "schemaVersion": "2.0.0",
  "updatedAt": "2018-08-19T08:15:37.731Z"
}